:040000000DEF00F010
:0400080027EF10F0DE
:06001800FF00A4EF10F050
:1015000000F820000000000000000000007E1F0026
:10151000000000D22300001E224A23000000000029
:1015200000000000000000000000000000000000BB
:101530000000000000C822AC22902200000012C56A
:1015400033F513C534F514C535F515C536F5000E5C
:101550003314166E000E3414176E800E3514186E88
:101560007F0E3614196E800E181809E17F0E1918B7
:1015700016101710D8A4BFEF0AF0C1EF0AF0F1EF70
:101580000AF0FF0E3314166EFF0E3414176E7F0E22
:101590003514186E000E3614196E165017101810E8
:1015A0001910D8A4D6EF0AF0D8EF0AF0DFEF0AF04E
:1015B00036BEDFEF0AF0DDEF0AF0E7EF0AF0FF0ECC
:1015C0003312FF0E34127F0E3512000E361233C561
:1015D00012F534C513F535C514F536C515F58DEF7F
:1015E0000CF036BE00EF0BF036503510341006E12B
:1015F0003304D8B0FEEF0AF000EF0BF037EF0BF03A
:10160000FF0E3314166EFF0E3414176EFF0E3514D2
:10161000186E7F0E3614196E165017101810191008
:10162000D8A415EF0BF017EF0BF021EF0BF0000E25
:10163000126E000E136E000E146E000E156E8DEFFE
:101640000CF036BE28EF0BF026EF0BF037EF0BF067
:10165000000E0501616F210E606FFF0E336EFF0EED
:10166000346EFF0E356E7F0E366EE7EF0AF0170E02
:10167000166E33C517F534C518F535C519F536C5D9
:101680001AF5166646EF0BF04EEF0BF01A341A32CD
:10169000193218321732162E41EF0BF017C52BF501
:1016A00018C52CF519C52DF51AC52EF52B502C1083
:1016B0002D102E10D8A45FEF0BF061EF0BF091EF1F
:1016C0000BF0000E1F6E000E206E000E216E000E3D
:1016D000226E76EF0BF0D890333634363536363608
:1016E000010E1F26000E20222122222235AE7BEF82
:1016F0000BF07DEF0BF06BEF0BF0FF0E1F24166E5F
:10170000FF0E2020176EFF0E2120186EFF0E2220E4
:10171000196E16502B5E17502C5A18502D5A19500E
:101720002E5A810E2B26FF0E2C22FF0E2D22FF0E8D
:101730002E22FF0E3314166EFF0E3414176E7F0E1A
:101740003514186E000E3614196E000E1610336E16
:10175000000E1710346E800E1810356E000E191022
:10176000366E2BA0B6EF0BF0B8EF0BF0C0EF0BF01E
:1017700033503326345034223550352236503622F9
:101780002E342E322D322C322B323350332634501D
:1017900034223550352236503622000E1B6E000E94
:1017A0001C6E000E1D6E000E1E6E1BC523F51CC5A3
:1017B00024F51DC525F51EC526F5000E2F6E000E5D
:1017C000306E000E316E010E326E2FEF0CF01B509A
:1017D0002F24276E1C503020286E1D503120296E7A
:1017E0001E5032202A6E2750335C2850345829501E
:1017F00035583650800A166E2A50800A1658D8A0DE
:1018000004EF0CF006EF0CF022EF0CF027502F2421
:101810001B6E285030201C6E295031201D6E2A501E
:1018200032201E6E2750335E2850345A2950355AC4
:101830002A50365A2F502326305024223150252248
:10184000325026223350332634503422355035223C
:1018500036503622D8903232313230322F322F5039
:10186000301031103210D8A438EF0CF03AEF0CF0F1
:10187000E7EF0BF03350341035103610D8B443EF87
:101880000CF045EF0CF059EF0CF0010E2314166E1E
:10189000000E2414176E000E2514186E000E261468
:1018A000196E16502326175024221850252219503D
:1018B000262223C516F524C517F525C518F526C516
:1018C00019F519341932183217321632000E16244F
:1018D000336E000E1720346E000E1820356E3F0E4A
:1018E0001920366E2BC516F52CC517F52DC518F524
:1018F0002EC519F5170ED890163617361836193624
:10190000E82E7BEF0CF01650332617503422185077
:10191000352219503622E7EF0AF012000C6E0C50F7
:10192000D8B495EF0CF097EF0CF0B9EF0CF007BEC0
:101930009EEF0CF09CEF0CF0B9EF0CF004C508F52D
:1019400005C509F506C50AF507C50BF5081E091EEC
:101950000A1E0B1E082A000E09220A220B2208C5A5
:101960000EF509C50FF50AC510F50BC511F5C1EF48
:101970000CF004C50EF505C50FF506C510F507C535
:1019800011F50450051006100710D8A4CAEF0CF08A
:10199000CCEF0CF0D6EF0CF0000E046E000E056ECE
:1019A000000E066E000E076E67EF0DF0960E0D6EC0
:1019B000E0EF0CF00D2AD890113210320F320E32B7
:1019C000000E0E14086E000E0F14096E000E101497
:1019D0000A6EFE0E11140B6E085009100A100B103F
:1019E000D8A4F5EF0CF0F7EF0CF0DAEF0CF005EF00
:1019F0000DF00D2A010E0E26000E0F2210221122CC
:101A0000D890113210320F320E32000E0E14086EC2
:101A1000000E0F14096E000E10140A6EFF0E111442
:101A20000B6E085009100A100B10D8A41AEF0DF015
:101A30001CEF0DF0F9EF0CF024EF0DF00D06D8902F
:101A40000E360F361036113610BE29EF0DF02BEF83
:101A50000DF033EF0DF0020E0D6031EF0DF033EFAE
:101A60000DF01EEF0DF00DB038EF0DF03AEF0DF068
:101A70003BEF0DF0109ED8900D320DC508F5096AA8
:101A80000A6A0B6A08C50BF50A6A096A086A0850EF
:101A90000E1209500F120A5010120B5011120C5056
:101AA000D8B455EF0DF057EF0DF05FEF0DF007BE16
:101AB0005EEF0DF05CEF0DF05FEF0DF0118E0EC5D7
:101AC00004F50FC505F510C506F511C507F512009B
:101AD00039343A3405016C6F6C51D8A472EF0DF0B3
:101AE00074EF0DF07EEF0DF0000E376E000E386EC5
:101AF000000E396E000E3A6EEBEF0DF037C53BF578
:101B000038C53CF539C53DF53AC53EF5200E8EEF9A
:101B10000DF0D8903E323D323C323B32E82E89EF18
:101B20000DF03B506B6F398EFF0E3716FF0E3816D7
:101B3000FF0E3916000E3A16960E6C5F6CBFA5EFBD
:101B40000DF0A3EF0DF0BBEF0DF06C51800A970F75
:101B5000D8B0ADEF0DF0AFEF0DF0B1EF0DF074EFC9
:101B60000DF0D8903A323932383237326C3FB1EF1B
:101B70000DF0D3EF0DF01F0E6C65C1EF0DF0C3EF4C
:101B80000DF0CBEF0DF074EF0DF0D89037363836FE
:101B900039363A366C076C51D8A4D1EF0DF0D3EF3B
:101BA0000DF0C5EF0DF06B51D8B4D9EF0DF0DBEFB0
:101BB0000DF0E3EF0DF03A1E391E381E376C000EA3
:101BC000382239223A2237C537F538C538F539C5B4
:101BD00039F53AC53AF51200000E0101406F000ECA
:101BE000416F800E426F000E436F000E446F000E77
:101BF000456F48696F0E496F7F0E4A6F4B690F0E34
:101C00004C6F4D6904010069CF0E086F7F0E106F95
:101C10001869070E206F2869000E016F000E096F0A
:101C2000000E116F000E196F000E216F000E296F4C
:101C3000000E026F000E0A6F000E126F000E1A6F78
:101C4000000E226F000E2A6F03690B6913691B696E
:101C5000070E236F2B6904690C6914691C690F0E48
:101C6000246F2C69000E0201866F000E856F000E36
:101C7000886F000E876F0D0E746F180E0D6F000EBB
:101C80000401056F000E066F000E076F000E3D6F1A
:101C9000000E3E6F000E3F6F000E0D6F000E0E6FB8
:101CA000000E0F6F000E156F000E166F000E176FEF
:101CB000000E256F000E266F000E276F1200F1EC4C
:101CC00011F0B0EC11F00009D8B469EF0EF06BEF31
:101CD0000EF061EF0EF08DEC11F004C562F505C554
:101CE00063F580EC11F004C564F505C565F521EEDA
:101CF00064F1DEC404F5DDC405F5000E05BEFF0E7B
:101D0000066E076E21EE64F1DEC408F5DDC409F548
:101D1000000E09BEFF0E0A6E0B6E8AEC0FF004C5B2
:101D200066F505C567F506C568F507C569F566C5B5
:101D300004F567C505F568C506F569C507F5000E24
:101D40008EEC0CF004C512F505C513F506C514F5A7
:101D500007C515F59FEC0AF012C537F513C538F520
:101D600014C539F515C53AF568EC0DF03750050185
:101D70006A6F010E5B6E6A51EDEC11F01200060EF7
:101D80000301F36F000EF96F1F0EFA6F100E0101C1
:101D9000106F000E116F000E126F000E136F000E09
:101DA000146F000E0301FB6F000ED96F000EDA6F87
:101DB000000EDB6F000EDC6F000EDF6F000EE06FB9
:101DC000000EE36F000EE46F000EE56F000EE66F8D
:101DD000400EE76F000EEA6F000EEB6F040EEC6F23
:101DE000030EED6FEE691F0EEF6F000EF06F000E29
:101DF000F16F000EF26FF39D000EF46FE30EF56FBE
:101E0000000EF66F000EF76F100EF86F000EFC6FED
:101E1000B394B392B39AB39CB39EF38F120008C5E8
:101E20000EF509C50FF5030E51EC0FF021EF0FF081
:101E30000EC5D9F40FC5DAF4DF5051EC0FF00E4A9D
:101E40000F2A0A06D8A00B060A2806E10B28D8A4F8
:101E50002CEF0FF02EEF0FF018EF0FF0FC0E51ECFF
:101E60000FF0190EF66E150EF76EF86A0900F5C43C
:101E70000CF50900F5C40DF502D848EF0FF0050088
:101E8000FA6E0C50FD6E0D50FE6EFF6AFA50120095
:101E90000009D8B44EEF0FF050EF0FF031EF0FF014
:101EA0001200076E170EF66E150EF76EF86A09002F
:101EB000F5C405F50900F5C406F502D869EF0FF081
:101EC0000500FA6E0550FD6E0650FE6EFF6AFA5070
:101ED00012000009D8B46FEF0FF071EF0FF052EF5E
:101EE0000FF0130EF66E150EF76EF86A0900F5C4C2
:101EF00005F50900F5C406F502D889EF0FF00500D5
:101F0000FA6E0550FD6E0650FE6EFF6AFA500750DD
:101F100012001200000E0C6E000E0D6E000E0E6E02
:101F2000000E0F6E04A097EF0FF099EF0FF0A1EFE6
:101F30000FF008500C2609500D220A500E220B50AB
:101F40000F22D890083609360A360B36D890073259
:101F50000632053204320450051006100710D8A4CA
:101F6000B4EF0FF0B6EF0FF092EF0FF00CC504F5E1
:101F70000DC505F50EC506F50FC507F51200000ED7
:101F80000201B46F000EB66F000EB86F000EBA6F8C
:101F9000000EBC6FB00EBE6F800EBF6F000EC06F24
:101FA0008A0EC16F000EC26F2E0EC36F000EC46F7B
:101FB000800EC56F000EC66F000E046E000E056E1B
:101FC00064EC11F0000E046E000E056E56EC11F07C
:101FD000000E046E000E056E48EC11F0000E4A6E05
:101FE000000E496E120051505210D8B4FAEF0FF0A3
:101FF000FCEF0FF008EF10F002D808EF10F005002A
:10200000FA6E5150FD6E5250FE6EFF6AFA50120089
:102010000301A1A10EEF10F010EF10F026EF10F069
:10202000A1914B504C10D8B418EF10F01AEF10F0EB
:1020300026EF10F002D826EF10F00500FA6E4B5094
:10204000FD6E4C50FE6EFF6AFA5012001200FAC488
:1020500002F5FBC403F5ACA430EF10F032EF10F042
:102060003DEF10F0B7A437EF10F039EF10F03DEF6F
:1020700010F0F3EC0FF04DEF10F0A8A842EF10F0C5
:1020800044EF10F04DEF10F0B3A849EF10F04BEF14
:1020900010F04DEF10F052EC10F003C5FBF402C548
:1020A000FAF41100B398010142BF59EF10F05CEF50
:1020B00010F0010E5DEF10F0000EFF0A016E01320C
:1020C0000132425101187F0B0118426F59505A10CA
:1020D000D8B46DEF10F06FEF10F07BEF10F002D876
:1020E0007BEF10F00500FA6E5950FD6E5A50FE6EEF
:1020F000FF6AFA50120012000301A09F000EA16FA8
:10210000600EA26F050EA86F0B0EA96F000EA36FD5
:10211000010EA76FF50EA66F000EA56F000EA46F3F
:10212000A195A193A191EA0E046E230E056ED5EC44
:1021300011F0E80E046E230E056ED0EC11F0AC84A5
:10214000810E0301A06F1200EE0EF66E230EF76EE5
:10215000000EF86E0900F5C45CF501EE60F10B0E9F
:10216000EE6AE806FDE101EE3FF11D0EEE6AE806BB
:10217000FDE10401080E5D6F000E5E6F000E5F6FE3
:102180000001C3EF10F0FAEC10F0D68E5FEC0EF009
:102190005B50D8B4CEEF10F0D0EF10F0C6EF10F0D7
:1021A0003FC508F540C509F541C50AF542C50BF51F
:1021B0000FEC0FF0000E5B6EC6EF10F00DEF00F0AD
:1021C000D69AB390D680000E046E000E056EE4EC35
:1021D00011F0B890D682000E046E000E056EDFEC92
:1021E00011F0BC90D684000E046E000E056EDAEC81
:1021F00011F0120037EC11F0ECEC0DF0BFEC0EF02A
:1022000024EC11F0CAEC11F0C4EC11F09AEC11F0CE
:102210007CEC10F0BFEC0FF0E0EC10F01200000EC0
:10222000046E0201C3AB17EF11F019EF11F022EFAA
:1022300011F0BEAB1EEF11F020EF11F022EF11F004
:10224000010E046E04501200A898800E0001706FF9
:10225000020E716F030E726F050E736FEC0E046E3B
:10226000230E056E72EC11F0B398A8881200600E70
:102270000001AD6F000EAF6F000EB36F080EB16FAF
:10228000000EB06F000EAC6F000E0401586F12000C
:1022900004500510D8B44FEF11F051EF11F055EF85
:1022A00011F004C543F505C544F5120004500510AE
:1022B000D8B45DEF11F05FEF11F063EF11F004C5DA
:1022C00045F505C546F5120004500510D8B46BEF6E
:1022D00011F06DEF11F071EF11F004C547F505C570
:1022E00048F5120004500510D8B479EF11F07BEFD7
:1022F00011F07FEF11F004C559F505C55AF512002C
:102300000301DD51DEC306F5076A06C507F5066A57
:102310000610046E0750056E12000301EA51EBC36C
:1023200006F5076A06C507F5066A0610046E07502B
:10233000056E1200620E046E050E056E000E076E2D
:10234000090E066EBBEC11F012000201C5BFABEF27
:1023500011F0AEEF11F0010EAFEF11F0000E120010
:102360000301F3A1B6EF11F0B9EF11F0010EBAEFCE
:1023700011F0000E120004C53FF505C540F506C575
:1023800041F507C542F51200800E0001C56F4E0EE3
:10239000C36F1200A00E0001C26FC90EC06F120001
:1023A00004C551F505C552F5120004C54BF505C528
:1023B0004CF5120004C553F505C554F5120004C5CB
:1023C00055F505C556F5120004C557F505C558F570
:1023D0001200046E04C5B6F21200046E04C5C3F008
:0F23E00012000301F38112001200120012000D0F
:020000040030CA
:0B0000008CFEF7FF9FFF7FFFFFFFFF5C
:00000001FF
