:040000000DEF00F010
:04000800FAEF15F006
:06001800FF009FEF16F04F
:1015000000EE2C00000000000000000000182B007E
:1015100000000004300000B62D6A2F00000000001B
:1015200000000000000000000000000000000000BB
:101530000000000000DE2EC02EA22E0000000501DB
:101540007151800B7A6F71517125806F70AFABEF65
:101550000AF0ADEF0AF0AEEF0AF080818051D8B406
:10156000B4EF0AF0B6EF0AF0C9EF0AF08029D8A468
:10157000BCEF0AF0BEEF0AF0C6EF0AF0000E6E6F85
:10158000000E6F6F000E706F000E716F708FD1EFD5
:101590000AF0000E6E6F000E6F6F000E706F000E7F
:1015A000716F7551800B7A1B755175257F6F74AF04
:1015B000DCEF0AF0DEEF0AF0DFEF0AF07F817F5107
:1015C000D8B4E5EF0AF0E7EF0AF0FAEF0AF07F2966
:1015D000D8A4EDEF0AF0EFEF0AF0F7EF0AF0000EF3
:1015E000726F000E736F000E746F000E756F748F44
:1015F00002EF0BF0000E726F000E736F000E746F2F
:10160000000E756F7F51D8B408EF0BF00AEF0BF0A6
:1016100012EF0BF08051D8A410EF0BF012EF0BF08B
:101620001CEF0BF0000E6E6F000E6F6F000E706FF0
:10163000000E716FB4EF0CF074516E03F3C485F5B6
:10164000F4C486F585517B6F7C6B7D6B7E6B865118
:10165000816F826B836B846B73516F03F3C485F569
:10166000F4C486F585517B27000E7C237D237E23E1
:1016700086518127000E82238323842372517003B5
:10168000F3C485F5F4C486F585517B27000E7C23D1
:101690007D237E2386518127000E8223832384238A
:1016A0007DC57EF57CC57DF57BC57CF57B6B725178
:1016B0006F03F3C485F5F4C486F585517B27865105
:1016C0007C23000E7D23000E7E2373516E03F3C432
:1016D00085F5F4C486F585517B2786517C23000E61
:1016E0007D23000E7E237DC57EF57CC57DF57BC503
:1016F0007CF57B6B72516E03F3C485F5F4C486F5FB
:1017000085517B2786517C23000E7D23000E7E238E
:1017100074516F03F3C485F5F4C486F585518127B0
:1017200086518223000E8323000E8423735170039D
:10173000F3C485F5F4C486F585518127865182234B
:10174000000E8323000E842374517003F3C485F5C7
:10175000F4C486F58551766F8651776F786B796B17
:1017600078C579F577C578F576C577F5766B7651D6
:1017700081277751822378518323795184237BC534
:1017800076F57CC577F57DC578F57EC579F5190EBA
:10179000CFEF0BF0D8907933783377337633E82E68
:1017A000CAEF0BF07651812777518223785183233A
:1017B000795184237DC57EF57CC57DF57BC57CF59F
:1017C0007B6B7F5180C576F5776B7627000E77238C
:1017D000820E7625856FFF0E7721866F05EF0CF060
:1017E000D89081378237833784377EAFFAEF0BF09A
:1017F000FCEF0BF0FDEF0BF08181D8907B377C374D
:101800007D377E378507D8A0860783AF0AEF0CF0B7
:101810000CEF0CF0F0EF0BF0000E7F6F7EAF13EFCC
:101820000CF015EF0CF039EF0CF0FF0E7B15766F16
:10183000FF0E7C15776FFF0E7D15786F7F0E7E157E
:10184000796F7651771178117911D8B42AEF0CF0AD
:101850002CEF0CF030EF0CF0010E7F6F39EF0CF035
:1018600081A135EF0CF037EF0CF039EF0CF02CEFD5
:101870000CF07F51D8B43FEF0CF041EF0CF065EF66
:101880000CF0010E8127000E82238323842384A180
:101890004CEF0CF04EEF0CF065EF0CF081C576F5D7
:1018A00082C577F583C578F584C579F579357933BF
:1018B00078337733763376C581F577C582F578C589
:1018C00083F579C584F5854B862B86BF70EF0CF0C8
:1018D000865108E18529D8A070EF0CF072EF0CF06A
:1018E0007CEF0CF0000E816F000E826F800E836F14
:1018F0007F0E846FAAEF0CF086BF89EF0CF0865143
:1019000006E18505D8B087EF0CF089EF0CF095EF74
:101910000CF0000E816F000E826F000E836F000EC0
:10192000846F000E7A6FAAEF0CF085C580F5FF0E6C
:101930008117FF0E82177F0E8317000E841780A178
:10194000A4EF0CF0A6EF0CF0A7EF0CF0838FD8906B
:101950008031846F7A51841381C56EF582C56FF52D
:1019600083C570F584C571F512001250800B1B6E93
:1019700012501224216E11AEC0EF0CF0C2EF0CF029
:10198000C3EF0CF021802150D8B4C9EF0CF0CBEF9D
:101990000CF0DEEF0CF02128D8A4D1EF0CF0D3EF3F
:1019A0000CF0DBEF0CF0000E0F6E000E106E000E50
:1019B000116E000E126E118EE6EF0CF0000E0F6E1F
:1019C000000E106E000E116E000E126E1650800B7F
:1019D0001B1A16501624206E15AEF1EF0CF0F3EF23
:1019E0000CF0F4EF0CF020802050D8B4FAEF0CF09B
:1019F000FCEF0CF00FEF0DF02028D8A402EF0DF053
:101A000004EF0DF00CEF0DF0000E136E000E146ECF
:101A1000000E156E000E166E158E17EF0DF0000EEF
:101A2000136E000E146E000E156E000E166E205012
:101A3000D8B41DEF0DF01FEF0DF027EF0DF0215082
:101A4000D8A425EF0DF027EF0DF031EF0DF0000ECB
:101A50000F6E000E106E000E116E000E126EC9EFAA
:101A60000EF015500F02F3C426F5F4C427F52650E6
:101A70001C6E1D6A1E6A1F6A2750226E236A246A22
:101A8000256A14501002F3C426F5F4C427F5265035
:101A90001C26000E1D221E221F2227502226000E69
:101AA00023222422252213501102F3C426F5F4C464
:101AB00027F526501C26000E1D221E221F2227500D
:101AC0002226000E2322242225221EC51FF51DC515
:101AD0001EF51CC51DF51C6A13501002F3C426F533
:101AE000F4C427F526501C2627501D22000E1E2266
:101AF000000E1F2214500F02F3C426F5F4C427F57C
:101B000026501C2627501D22000E1E22000E1F22CA
:101B10001EC51FF51DC51EF51CC51DF51C6A1350FD
:101B20000F02F3C426F5F4C427F526501C262750CF
:101B30001D22000E1E22000E1F2215501002F3C49B
:101B400026F5F4C427F52650222627502322000E1E
:101B50002422000E252214501102F3C426F5F4C4E9
:101B600027F52650222627502322000E2422000E7D
:101B7000252215501102F3C426F5F4C427F526508A
:101B8000176E2750186E196A1A6A19C51AF518C502
:101B900019F517C518F5176A175022261850232271
:101BA000195024221A5025221CC517F51DC518F5F9
:101BB0001EC519F51FC51AF5190EE4EF0DF0D890E2
:101BC0001A32193218321732E82EDFEF0DF01750A3
:101BD000222618502322195024221A5025221EC5CD
:101BE0001FF51DC51EF51CC51DF51C6A205021C51D
:101BF00017F5186A1726000E1822820E1724266E73
:101C0000FF0E1820276E1AEF0EF0D89022362336DA
:101C1000243625361FAE0FEF0EF011EF0EF012EF47
:101C20000EF02280D8901C361D361E361F36260632
:101C3000D8A0270624AE1FEF0EF021EF0EF005EF1F
:101C40000EF0000E206E1FAE28EF0EF02AEF0EF001
:101C50004EEF0EF0FF0E1C14176EFF0E1D14186EC3
:101C6000FF0E1E14196E7F0E1F141A6E17501810D7
:101C700019101A10D8B43FEF0EF041EF0EF045EFF7
:101C80000EF0010E206E4EEF0EF022A04AEF0EF085
:101C90004CEF0EF04EEF0EF041EF0EF02050D8B4A6
:101CA00054EF0EF056EF0EF07AEF0EF0010E2226F2
:101CB000000E23222422252225A061EF0EF063EFDF
:101CC0000EF07AEF0EF022C517F523C518F524C5DE
:101CD00019F525C51AF51A341A3219321832173285
:101CE00017C522F518C523F519C524F51AC525F51C
:101CF000264A272A27BE85EF0EF0275008E126281E
:101D0000D8A085EF0EF087EF0EF091EF0EF0000EE9
:101D1000226E000E236E800E246E7F0E256EBFEFA6
:101D20000EF027BE9EEF0EF0275006E12604D8B035
:101D30009CEF0EF09EEF0EF0AAEF0EF0000E226E5A
:101D4000000E236E000E246E000E256E000E1B6E1C
:101D5000BFEF0EF026C521F5FF0E2216FF0E23164B
:101D60007F0E2416000E251621A0B9EF0EF0BBEF52
:101D70000EF0BCEF0EF0248ED8902130256E1B5053
:101D8000251222C50FF523C510F524C511F525C56B
:101D900012F512002B50800B386E2B502B243F6E07
:101DA0002AAED5EF0EF0D7EF0EF0D8EF0EF03F8051
:101DB0003F50D8B4DEEF0EF0E0EF0EF0F5EF0EF08E
:101DC0003F28D8A4E6EF0EF0E8EF0EF0F0EF0EF0AB
:101DD000000E286E000E296E000E2A6E000E2B6E6D
:101DE0002A8E000E2B6EFDEF0EF0000E286E000EF8
:101DF000296E000E2A6E000E2B6E2F50800B381AA3
:101E00002F502F24406E2EAE08EF0FF00AEF0FF088
:101E10000BEF0FF040804050D8B411EF0FF013EFEC
:101E20000FF028EF0FF04028D8A419EF0FF01BEFA8
:101E30000FF023EF0FF0000E2C6E000E2D6E000E33
:101E40002E6E000E2F6E2E8E000E2F6E30EF0FF0C6
:101E5000000E2C6E000E2D6E000E2E6E000E2F6EDC
:101E60002C502D102E102F10D8A439EF0FF03BEF6F
:101E70000FF053EF0FF0000E286E000E296E000ECB
:101E80002A6E000E2B6E800E2A127F0E2B123850F7
:101E90002B1228C528F529C529F52AC52AF52BC5F1
:101EA0002BF596EF10F03F50D8A459EF0FF05BEFF1
:101EB0000FF065EF0FF0000E286E000E296E000E79
:101EC0002A6E000E2B6E96EF10F040503FC530F595
:101ED000316A305E000E315A7F0E3024396E000EAA
:101EE00031203A6E28C534F529C535F52AC536F5B1
:101EF0002BC537F5000E286E000E296E000E2A6ED7
:101F0000000E2B6E000E3B6E000E3C6E000E3D6E02
:101F1000000E3E6E000E406EC6EF0FF04050D8B47B
:101F200094EF0FF096EF0FF0ADEF0FF0D89034363E
:101F3000353636363736D890283629362A362B3677
:101F40003EAEA5EF0FF0A7EF0FF0A8EF0FF028803F
:101F5000D8903B363C363D363E362C50345C2D50C6
:101F600035582E5036582F503758D8A0BAEF0FF0AA
:101F7000BCEF0FF0C5EF0FF03E8C2C50345E2D50AF
:101F8000355A2E50365A2F50375A402A190E40646F
:101F9000CCEF0FF0CEEF0FF08EEF0FF03450351086
:101FA00036103710D8B4D7EF0FF0D9EF0FF0F1EFAC
:101FB0000FF03B80F1EF0FF0D890283629362A3603
:101FC0002B363EAEE6EF0FF0E8EF0FF0E9EF0FF043
:101FD0002880D8903B363C363D363E363906D8A070
:101FE0003A062AAEF6EF0FF0F8EF0FF0DCEF0FF045
:101FF000000E406E3EAEFFEF0FF001EF10F025EF48
:1020000010F0FF0E3B14306EFF0E3C14316EFF0ECD
:102010003D14326E7F0E3E14336E3050311032104C
:102020003310D8B416EF10F018EF10F01CEF10F0CA
:10203000010E406E25EF10F028A021EF10F023EFE5
:1020400010F025EF10F018EF10F04050D8B42BEF3F
:1020500010F02DEF10F051EF10F0010E2826000EB9
:1020600029222A222B222BA038EF10F03AEF10F071
:1020700051EF10F028C530F529C531F52AC532F5E4
:102080002BC533F53334333232323132303230C54E
:1020900028F531C529F532C52AF533C52BF5394A5E
:1020A0003A2A3ABE5CEF10F03A5008E13928D8A03D
:1020B0005CEF10F05EEF10F069EF10F0000E3A6E7A
:1020C0003968000E286E000E296E000E2A6E000E72
:1020D0002B6E3ABE76EF10F03A5006E13904D8B0D4
:1020E00074EF10F076EF10F084EF10F0000E3A6EFF
:1020F000000E396E000E286E000E296E000E2A6E3C
:10210000000E2B6E000E386E39C53FF53FA08BEFE9
:1021100010F08DEF10F090EF10F02A8E91EF10F08C
:102120002A9ED8903F302B6E47EF0FF0120005012A
:10213000686F05016851D8B4A0EF10F0A2EF10F05D
:10214000C4EF10F063BFA9EF10F0A7EF10F0C4EFD9
:1021500010F060C564F561C565F562C566F563C5D7
:1021600067F5641F651F661F671F642B000E6523DC
:102170006623672364C56AF565C56BF566C56CF5AE
:1021800067C56DF5CCEF10F060C56AF561C56BF5FC
:1021900062C56CF563C56DF5605161116211631123
:1021A000D8A4D5EF10F0D7EF10F0E1EF10F0000E4B
:1021B000606F000E616F000E626F000E636F72EF52
:1021C00011F0960E696FEBEF10F0692BD8906D331C
:1021D0006C336B336A33000E6A15646F000E6B1537
:1021E000656F000E6C15666FFE0E6D15676F64519E
:1021F000651166116711D8A400EF11F002EF11F01C
:10220000E5EF10F010EF11F0692B010E6A27000EB8
:102210006B236C236D23D8906D336C336B336A332F
:10222000000E6A15646F000E6B15656F000E6C155D
:10223000666FFF0E6D15676F64516511661167114A
:10224000D8A425EF11F027EF11F004EF11F02FEFD4
:1022500011F06907D8906A376B376C376D376CBFF0
:1022600034EF11F036EF11F03EEF11F0020E69611C
:102270003CEF11F03EEF11F029EF11F069B143EF9F
:1022800011F045EF11F046EF11F06C9FD8906933D3
:1022900069C564F5656B666B676B64C567F5666BEE
:1022A000656B646B64516A1365516B1366516C13F3
:1022B00067516D136851D8B460EF11F062EF11F0FF
:1022C0006AEF11F063BF69EF11F067EF11F06AEF89
:1022D00011F06D8F6AC560F56BC561F56CC562F56F
:1022E0006DC563F51200096E0950D8B47AEF11F08C
:1022F0007CEF11F09EEF11F004BE83EF11F081EF3F
:1023000011F09EEF11F001C505F502C506F503C5F4
:1023100007F504C508F5051E061E071E081E052A3A
:10232000000E06220722082205C50BF506C50CF58E
:1023300007C50DF508C50EF5A6EF11F001C50BF5A3
:1023400002C50CF503C50DF504C50EF501500210CC
:1023500003100410D8A4AFEF11F0B1EF11F0BBEFF0
:1023600011F0000E016E000E026E000E036E000EE4
:10237000046E4CEF12F0960E0A6EC5EF11F00A2AA9
:10238000D8900E320D320C320B32000E0B14056E4B
:10239000000E0C14066E000E0D14076EFE0E0E14C9
:1023A000086E0550061007100810D8A4DAEF11F0D7
:1023B000DCEF11F0BFEF11F0EAEF11F00A2A010E85
:1023C0000B26000E0C220D220E22D8900E320D325A
:1023D0000C320B32000E0B14056E000E0C14066E40
:1023E000000E0D14076EFF0E0E14086E0550061039
:1023F00007100810D8A4FFEF11F001EF12F0DEEF84
:1024000011F009EF12F00A06D8900B360C360D3693
:102410000E360DBE0EEF12F010EF12F018EF12F0A4
:10242000020E0A6016EF12F018EF12F003EF12F02E
:102430000AB01DEF12F01FEF12F020EF12F00D9E08
:10244000D8900A320AC505F5066A076A086A05C502
:1024500008F5076A066A056A05500B1206500C1249
:1024600007500D1208500E120950D8B43AEF12F06E
:102470003CEF12F044EF12F004BE43EF12F041EFD4
:1024800012F044EF12F00E8E0BC501F50CC502F5EB
:102490000DC503F50EC504F51200050189358A3511
:1024A000906F9051D8A457EF12F059EF12F063EFEC
:1024B00012F0000E876F000E886F000E896F000EFD
:1024C0008A6FD0EF12F087C58BF588C58CF589C56A
:1024D0008DF58AC58EF5200E73EF12F0D8908E33ED
:1024E0008D338C338B33E82E6EEF12F08B518F6F60
:1024F000898FFF0E8717FF0E8817FF0E8917000EB2
:102500008A17960E905F90BF8AEF12F088EF12F054
:10251000A0EF12F09051800A970FD8B092EF12F00E
:1025200094EF12F096EF12F059EF12F0D8908A3330
:10253000893388338733903F96EF12F0B8EF12F06B
:102540001F0E9065A6EF12F0A8EF12F0B0EF12F098
:1025500059EF12F0D8908737883789378A37900734
:102560009051D8A4B6EF12F0B8EF12F0AAEF12F023
:102570008F51D8B4BEEF12F0C0EF12F0C8EF12F0D6
:102580008A1F891F881F876D000E882389238A234D
:1025900087C587F588C588F589C589F58AC58AF50F
:1025A0001200433444344A6E4A50D8A4DAEF12F091
:1025B000DCEF12F0E6EF12F0000E416E000E426EFC
:1025C000000E436E000E446E53EF13F041C545F507
:1025D00042C546F543C547F544C548F5200EF6EF1C
:1025E00012F0D8904832473246324532E82EF1EFA9
:1025F00012F04550496E438EFF0E4116FF0E4216F3
:10260000FF0E4316000E4416960E4A5E4ABE0DEFAC
:1026100013F00BEF13F023EF13F04A50800A970FDB
:10262000D8B015EF13F017EF13F019EF13F0DCEF3C
:1026300012F0D89044324332423241324A3E19EFCE
:1026400013F03BEF13F01F0E4A6429EF13F02BEF4A
:1026500013F033EF13F0DCEF12F0D890413642362E
:10266000433644364A064A50D8A439EF13F03BEFBC
:1026700013F02DEF13F04950D8B441EF13F043EFAE
:1026800013F04BEF13F0441E431E421E416C000E2C
:1026900042224322442241C541F542C542F543C589
:1026A00043F544C544F5120041EC17F005C551F55A
:1026B00006C552F55150565C52505758D8A063EF9A
:1026C00013F065EF13F071EF13F0561C4B6E571CAF
:1026D0004C6E51504B245C6E52504C205D6E77EF27
:1026E00013F05650515C5C6E575052585D6E51C598
:1026F00056F552C557F59C0E136E530E146EC90E47
:10270000156E370E166E5CC501F55DC502F5036AE0
:10271000046A000E73EC11F001C50FF502C510F547
:1027200003C511F504C512F5B5EC0CF00FC52CF579
:1027300010C52DF511C52EF512C52FF5000E286E0A
:10274000000E296E800E2A6E3F0E2B6ECAEC0EF024
:1027500028C54DF529C54EF52AC54FF52BC550F5B1
:10276000000E136E000E146E700E156E420E166E75
:102770004DC50FF54EC510F54FC511F550C512F5F5
:10278000B5EC0CF00FC541F510C542F511C543F588
:1027900012C544F5D1EC12F041C595F542C596F548
:1027A000120011EC18F0C0EC17F00009D8B4DBEF00
:1027B00013F0DDEF13F0D3EF13F09BEC17F060C5CF
:1027C000ACF561C5ADF58DEC17F060C5AEF561C532
:1027D000AFF5AEC560F5AFC561F5AEC562F5AFC585
:1027E00063F51CEC17F0050160C5B0F561C5B1F5E6
:1027F000000EB1BFFF0EB26FB36FAFBF02EF14F0A8
:1028000004EF14F008EF14F0AEC5B4F50AEF14F0BD
:10281000000EB46FB451B55DD8B011EF14F013EFE2
:1028200014F015EF14F0B4C5B5F5010EAB6FB4514B
:1028300007EC18F0330E0501726F330E736F330E11
:10284000746F3F0E756FB551606F616B626B636B38
:10285000010E97EC10F060C56EF561C56FF562C5AD
:1028600070F563C571F59FEC0AF06EC587F56FC50D
:1028700088F570C589F571C58AF54DEC12F0050132
:1028800087510CEC18F095C5B6F596C5B7F5120052
:10289000000E0101406F000E416F800E426F000E6E
:1028A000436F000E446F000E456F48696F0E496F0D
:1028B0007F0E4A6F4B690F0E4C6F4D690401006922
:1028C000CF0E086F7F0E106F1869070E206F2869F2
:1028D000000E016F000E096F000E116F000E196FD0
:1028E000000E216F000E296F000E026F000E0A6F9E
:1028F000000E126F000E1A6F000E226F000E2A6F6C
:1029000003690B6913691B69070E236F2B6904693F
:102910000C6914691C690F0E246F2C69000E0201EA
:10292000866F000E856F000E886F000E876F0D0E8C
:10293000746F180E0D6F000E0401056F000E066F08
:10294000000E076F000E3D6F000E3E6F000E3F6FD2
:10295000000E0D6F000E0E6F000E0F6F000E156F44
:10296000000E166F000E176F000E256F000E266FFB
:10297000000E276F1200060E0301F36F000EF96FB1
:102980001F0EFA6F100E0101106F000E116F000E76
:10299000126F000E136F000E146F000E0301FB6F19
:1029A000000ED96F000EDA6F000EDB6F000EDC6FC9
:1029B000000EDF6F000EE06F000EE36F000EE46F9D
:1029C000000EE56F000EE66F400EE76F000EEA6F37
:1029D000000EEB6F040EEC6F030EED6FEE691F0E31
:1029E000EF6F000EF06F000EF16F000EF26FF39DAF
:1029F000000EF46FE30EF56F000EF66F000EF76F2A
:102A0000100EF86F000EFC6FB394B392B39AB39CA0
:102A1000B39EF38F120064C56AF565C56BF5030EAE
:102A200050EC15F01EEF15F06AC5D9F46BC5DAF459
:102A3000DF5050EC15F005016A4B6B2B0501660762
:102A4000D8A06707662906E16729D8A42AEF15F000
:102A50002CEF15F014EF15F0FC0E50EC15F0190EDC
:102A6000F66E150EF76EF86A0900F5C468F50900F0
:102A7000F5C469F502D847EF15F00500FA6E0501B7
:102A80006851FD6E6951FE6EFF6AFA50120000092E
:102A9000D8B44DEF15F04FEF15F02FEF15F01200F1
:102AA0000501636F170EF66E150EF76EF86A0900D2
:102AB000F5C461F50900F5C462F502D86AEF15F0B6
:102AC0000500FA6E05016151FD6E6251FE6EFF6AEE
:102AD000FA5012000009D8B470EF15F072EF15F03B
:102AE00052EF15F0130EF66E150EF76EF86A090028
:102AF000F5C461F50900F5C462F502D88BEF15F055
:102B00000500FA6E05016151FD6E6251FE6EFF6AAD
:102B1000FA50635112001200000E0201B46F000E51
:102B2000B66F000EB86F000EBA6F000EBC6FB00E1D
:102B3000BE6F800EBF6F000EC06F8A0EC16F000E99
:102B4000C26F2E0EC36F000EC46F800EC56F000ED5
:102B5000C66F000E0501606F000E616F6FEC17F01D
:102B6000000E0501606F000E616F60EC17F0000E43
:102B70000501606F000E616F51EC17F0000E05014A
:102B80009E6F000E9D6F12000501A351A411D8B4D1
:102B9000CCEF15F0CEEF15F0DAEF15F002D8DAEF42
:102BA00015F00500FA6EA351FD6EA451FE6EFF6A8A
:102BB000FA5012000301A1A1E0EF15F0E2EF15F0C9
:102BC000F9EF15F0A19105019F51A011D8B4EBEFD9
:102BD00015F0EDEF15F0F9EF15F002D8F9EF15F05B
:102BE0000500FA6E9F51FD6EA051FE6EFF6AFA500D
:102BF00012001200FAC454F5FBC455F5ACA403EF5F
:102C000016F005EF16F010EF16F0B7A40AEF16F065
:102C10000CEF16F010EF16F0C4EC15F020EF16F0E4
:102C2000A8A815EF16F017EF16F020EF16F0B3A8CE
:102C30001CEF16F01EEF16F020EF16F025EC16F044
:102C400055C5FBF454C5FAF41100B398010142BF15
:102C50002CEF16F02FEF16F0010E30EF16F0000EED
:102C6000FF0A536E53325332425153187F0B53189D
:102C7000426F5A505B10D8B440EF16F042EF16F096
:102C80004EEF16F002D84EEF16F00500FA6E5A50CD
:102C9000FD6E5B50FE6EFF6AFA5012001200F3ECFC
:102CA00016F0000E0501B56FA80E606F260E616F5D
:102CB0007EEC17F0D68ED1EC13F00501AB51D8B4F1
:102CC00064EF16F066EF16F05BEF16F091C564F551
:102CD00092C565F593C566F594C567F50BEC15F0DF
:102CE000000E0501AB6F5BEF16F00DEF00F0030176
:102CF000A09F000EA16F400EA26F050EA86F0B0ED5
:102D0000A96F0B0EA36FA769A669000EA56F010E30
:102D1000A46FA195A193A1912A0E0501606F300EB9
:102D2000616FEEEC17F0280E0501606F300E616FD9
:102D3000E9EC17F0AC84810E0301A06F12002E0E97
:102D4000F66E300EF76E000EF86E0900F5C45EF5F3
:102D500001EE91F1270EEE6AE806FDE101EE56F173
:102D6000080EEE6AE806FDE10401080E5D6F000E34
:102D70005E6F000E5F6F00014FEF16F0D69AB390B2
:102D8000D680000E0501606F000E616FFDEC17F03C
:102D9000B890D682000E0501606F000E616FF8ECEE
:102DA00017F0BC90D684000E0501606F000E616FB5
:102DB000F3EC17F01200000E0501606F0201C3ABC7
:102DC000E4EF16F0E6EF16F0F0EF16F0BEABEBEF27
:102DD00016F0EDEF16F0F0EF16F0010E0501606F42
:102DE00005016051120030EC17F048EC14F0BBEC18
:102DF00014F008EC17F0E3EC17F0DDEC17F0A9EC99
:102E000017F077EC16F08CEC15F0BEEC16F0120013
:102E1000A898860E0001706F020E716F030E726F1C
:102E2000050E736F2C0E0501606F300E616F7EEC26
:102E300017F0B398A8881200050160516203F3C42B
:102E400064F5F4C465F560516303F350652761517F
:102E50006203F350652764C560F565C561F512002E
:102E6000600E0001AD6F000EAF6F000EB36F080E65
:102E7000B16F000EB06F000EAC6F000E0401586F02
:102E800012000301A187A1B748EF17F04AEF17F02E
:102E900043EF17F0D4EC17F001C505F502C506F5B0
:102EA0001200050160516111D8B459EF17F05BEFC2
:102EB00017F05FEF17F060C597F561C598F5120040
:102EC000050160516111D8B468EF17F06AEF17F08F
:102ED0006EEF17F060C599F561C59AF5120005010E
:102EE00060516111D8B477EF17F079EF17F07DEFEB
:102EF00017F060C59BF561C59CF512000501605196
:102F00006111D8B486EF17F088EF17F08CEF17F047
:102F100060C55AF561C55BF512000301DD51DEC3E2
:102F200062F50501636B62C563F5626B6211606FE8
:102F30006351616F12000301EA51EBC362F50501B1
:102F4000636B62C563F5626B6211606F6351616FA1
:102F50001200AC0E0501606F050E616F000E636F0D
:102F60000C0E626FCBEC17F012000201C5BFBBEF75
:102F700017F0BEEF17F0010EBFEF17F0000E1200B2
:102F80000301F3A1C6EF17F0C9EF17F0010ECAEF66
:102F900017F0000E120060C591F561C592F562C58B
:102FA00093F563C594F512000301A097A551036E34
:102FB000A451016E03C502F51200800E0001C56F19
:102FC0004E0EC36F1200A00E0001C26FAF0EC06F95
:102FD000120060C5A3F561C5A4F5120060C59FF598
:102FE00061C5A0F5120060C5A5F561C5A6F5120082
:102FF00060C5A7F561C5A8F5120060C5A9F561C552
:10300000AAF512000501606F60C5B6F21200050155
:10301000606F60C5C3F012000501606F60C5C0F04D
:0F30200012000301F38112001200120012000DC2
:020000040030CA
:0B0000008CFEF7FF9FFF7FFFFFFFFF5C
:00000001FF
